{
  "contractName": "MAP",
  "abi": [
    {
      "inputs": [],
      "payable": false,
      "stateMutability": "nonpayable",
      "type": "constructor"
    },
    {
      "anonymous": false,
      "inputs": [
        {
          "indexed": true,
          "internalType": "address",
          "name": "_owner",
          "type": "address"
        },
        {
          "indexed": true,
          "internalType": "address",
          "name": "_spender",
          "type": "address"
        },
        {
          "indexed": false,
          "internalType": "uint256",
          "name": "_value",
          "type": "uint256"
        }
      ],
      "name": "Approval",
      "type": "event"
    },
    {
      "anonymous": false,
      "inputs": [
        {
          "indexed": true,
          "internalType": "address",
          "name": "_owner",
          "type": "address"
        },
        {
          "indexed": false,
          "internalType": "uint256",
          "name": "_tokenId",
          "type": "uint256"
        },
        {
          "indexed": false,
          "internalType": "uint256",
          "name": "_inflation",
          "type": "uint256"
        }
      ],
      "name": "Deposit",
      "type": "event"
    },
    {
      "anonymous": false,
      "inputs": [
        {
          "indexed": true,
          "internalType": "address",
          "name": "from",
          "type": "address"
        },
        {
          "indexed": true,
          "internalType": "address",
          "name": "to",
          "type": "address"
        },
        {
          "indexed": false,
          "internalType": "uint256",
          "name": "_tokenId",
          "type": "uint256"
        }
      ],
      "name": "Tcmap",
      "type": "event"
    },
    {
      "anonymous": false,
      "inputs": [
        {
          "indexed": true,
          "internalType": "address",
          "name": "from",
          "type": "address"
        },
        {
          "indexed": true,
          "internalType": "address",
          "name": "to",
          "type": "address"
        },
        {
          "indexed": false,
          "internalType": "uint256",
          "name": "value",
          "type": "uint256"
        }
      ],
      "name": "Transfer",
      "type": "event"
    },
    {
      "anonymous": false,
      "inputs": [
        {
          "indexed": true,
          "internalType": "address",
          "name": "_owner",
          "type": "address"
        },
        {
          "indexed": false,
          "internalType": "uint256",
          "name": "_tokenId",
          "type": "uint256"
        },
        {
          "indexed": false,
          "internalType": "uint256",
          "name": "_inflation",
          "type": "uint256"
        }
      ],
      "name": "Withdraw",
      "type": "event"
    },
    {
      "constant": true,
      "inputs": [
        {
          "internalType": "address",
          "name": "",
          "type": "address"
        },
        {
          "internalType": "address",
          "name": "",
          "type": "address"
        }
      ],
      "name": "allowance",
      "outputs": [
        {
          "internalType": "uint256",
          "name": "",
          "type": "uint256"
        }
      ],
      "payable": false,
      "stateMutability": "view",
      "type": "function"
    },
    {
      "constant": true,
      "inputs": [
        {
          "internalType": "address",
          "name": "",
          "type": "address"
        }
      ],
      "name": "balanceOf",
      "outputs": [
        {
          "internalType": "uint256",
          "name": "",
          "type": "uint256"
        }
      ],
      "payable": false,
      "stateMutability": "view",
      "type": "function"
    },
    {
      "constant": true,
      "inputs": [
        {
          "internalType": "uint256",
          "name": "",
          "type": "uint256"
        }
      ],
      "name": "data",
      "outputs": [
        {
          "internalType": "uint256",
          "name": "time",
          "type": "uint256"
        },
        {
          "internalType": "uint256",
          "name": "holdings",
          "type": "uint256"
        },
        {
          "internalType": "uint256",
          "name": "interest",
          "type": "uint256"
        }
      ],
      "payable": false,
      "stateMutability": "view",
      "type": "function"
    },
    {
      "constant": true,
      "inputs": [],
      "name": "decimals",
      "outputs": [
        {
          "internalType": "uint8",
          "name": "",
          "type": "uint8"
        }
      ],
      "payable": false,
      "stateMutability": "view",
      "type": "function"
    },
    {
      "constant": true,
      "inputs": [],
      "name": "inflation",
      "outputs": [
        {
          "internalType": "uint256",
          "name": "",
          "type": "uint256"
        }
      ],
      "payable": false,
      "stateMutability": "view",
      "type": "function"
    },
    {
      "constant": true,
      "inputs": [],
      "name": "name",
      "outputs": [
        {
          "internalType": "string",
          "name": "",
          "type": "string"
        }
      ],
      "payable": false,
      "stateMutability": "view",
      "type": "function"
    },
    {
      "constant": true,
      "inputs": [],
      "name": "symbol",
      "outputs": [
        {
          "internalType": "string",
          "name": "",
          "type": "string"
        }
      ],
      "payable": false,
      "stateMutability": "view",
      "type": "function"
    },
    {
      "constant": true,
      "inputs": [
        {
          "internalType": "uint256",
          "name": "",
          "type": "uint256"
        }
      ],
      "name": "token",
      "outputs": [
        {
          "internalType": "address",
          "name": "",
          "type": "address"
        }
      ],
      "payable": false,
      "stateMutability": "view",
      "type": "function"
    },
    {
      "constant": true,
      "inputs": [],
      "name": "tokenInBank",
      "outputs": [
        {
          "internalType": "uint256",
          "name": "",
          "type": "uint256"
        }
      ],
      "payable": false,
      "stateMutability": "view",
      "type": "function"
    },
    {
      "constant": true,
      "inputs": [
        {
          "internalType": "address",
          "name": "",
          "type": "address"
        }
      ],
      "name": "tokenNo",
      "outputs": [
        {
          "internalType": "uint256",
          "name": "",
          "type": "uint256"
        }
      ],
      "payable": false,
      "stateMutability": "view",
      "type": "function"
    },
    {
      "constant": true,
      "inputs": [],
      "name": "totalSupply",
      "outputs": [
        {
          "internalType": "uint256",
          "name": "",
          "type": "uint256"
        }
      ],
      "payable": false,
      "stateMutability": "view",
      "type": "function"
    },
    {
      "constant": false,
      "inputs": [
        {
          "internalType": "address",
          "name": "_to",
          "type": "address"
        },
        {
          "internalType": "uint256",
          "name": "_value",
          "type": "uint256"
        }
      ],
      "name": "transfer",
      "outputs": [
        {
          "internalType": "bool",
          "name": "success",
          "type": "bool"
        }
      ],
      "payable": false,
      "stateMutability": "nonpayable",
      "type": "function"
    },
    {
      "constant": false,
      "inputs": [
        {
          "internalType": "address",
          "name": "_from",
          "type": "address"
        },
        {
          "internalType": "address",
          "name": "_to",
          "type": "address"
        },
        {
          "internalType": "uint256",
          "name": "_value",
          "type": "uint256"
        }
      ],
      "name": "transferFrom",
      "outputs": [
        {
          "internalType": "bool",
          "name": "success",
          "type": "bool"
        }
      ],
      "payable": false,
      "stateMutability": "nonpayable",
      "type": "function"
    },
    {
      "constant": false,
      "inputs": [
        {
          "internalType": "address",
          "name": "_spender",
          "type": "address"
        },
        {
          "internalType": "uint256",
          "name": "_value",
          "type": "uint256"
        }
      ],
      "name": "approve",
      "outputs": [
        {
          "internalType": "bool",
          "name": "success",
          "type": "bool"
        }
      ],
      "payable": false,
      "stateMutability": "nonpayable",
      "type": "function"
    },
    {
      "constant": false,
      "inputs": [
        {
          "internalType": "uint256",
          "name": "_value",
          "type": "uint256"
        }
      ],
      "name": "deposit",
      "outputs": [],
      "payable": false,
      "stateMutability": "nonpayable",
      "type": "function"
    },
    {
      "constant": false,
      "inputs": [
        {
          "internalType": "uint256",
          "name": "_tokenId",
          "type": "uint256"
        }
      ],
      "name": "withdraw",
      "outputs": [],
      "payable": false,
      "stateMutability": "nonpayable",
      "type": "function"
    },
    {
      "constant": false,
      "inputs": [
        {
          "internalType": "address",
          "name": "_id",
          "type": "address"
        },
        {
          "internalType": "uint256",
          "name": "_tokenId",
          "type": "uint256"
        }
      ],
      "name": "transferCmap",
      "outputs": [],
      "payable": false,
      "stateMutability": "nonpayable",
      "type": "function"
    },
    {
      "constant": false,
      "inputs": [
        {
          "internalType": "uint256[]",
          "name": "_tokens",
          "type": "uint256[]"
        }
      ],
      "name": "withdrawAll",
      "outputs": [],
      "payable": false,
      "stateMutability": "nonpayable",
      "type": "function"
    }
  ],
  "bytecode": "0x60806040526305f5e100600b553480156200001957600080fd5b506009600260006101000a81548160ff021916908360ff160217905550600260009054906101000a900460ff1660ff16600a0a633b9aca0002600381905550600354600460003373ffffffffffffffffffffffffffffffffffffffff1673ffffffffffffffffffffffffffffffffffffffff168152602001908152602001600020819055506040518060400160405280600381526020017f4d4150000000000000000000000000000000000000000000000000000000000081525060009080519060200190620000eb92919062000140565b506040518060400160405280600381526020017f4d41500000000000000000000000000000000000000000000000000000000000815250600190805190602001906200013992919062000140565b50620001ef565b828054600181600116156101000203166002900490600052602060002090601f016020900481019282601f106200018357805160ff1916838001178555620001b4565b82800160010185558215620001b4579182015b82811115620001b357825182559160200191906001019062000196565b5b509050620001c39190620001c7565b5090565b620001ec91905b80821115620001e8576000816000905550600101620001ce565b5090565b90565b611c7480620001ff6000396000f3fe608060405234801561001057600080fd5b50600436106101165760003560e01c806370a08231116100a2578063b6b55f2511610071578063b6b55f25146105d7578063be0522e014610605578063dd62ed3e14610623578063e919bdbb1461069b578063f0ba8440146106e957610116565b806370a082311461047857806395d89b41146104d0578063a65267d614610553578063a9059cbb1461057157610116565b806318160ddd116100e957806318160ddd1461032a57806323b872dd146103485780632e1a7d4d146103ce578063313ce567146103fc5780633f440e1f1461042057610116565b8063044215c61461011b57806306fdde0314610189578063095ea7b31461020c57806316e4f32214610272575b600080fd5b6101476004803603602081101561013157600080fd5b8101908080359060200190929190505050610739565b604051808273ffffffffffffffffffffffffffffffffffffffff1673ffffffffffffffffffffffffffffffffffffffff16815260200191505060405180910390f35b61019161076c565b6040518080602001828103825283818151815260200191508051906020019080838360005b838110156101d15780820151818401526020810190506101b6565b50505050905090810190601f1680156101fe5780820380516001836020036101000a031916815260200191505b509250505060405180910390f35b6102586004803603604081101561022257600080fd5b81019080803573ffffffffffffffffffffffffffffffffffffffff1690602001909291908035906020019092919050505061080a565b604051808215151515815260200191505060405180910390f35b6103286004803603602081101561028857600080fd5b81019080803590602001906401000000008111156102a557600080fd5b8201836020820111156102b757600080fd5b803590602001918460208302840111640100000000831117156102d957600080fd5b919080806020026020016040519081016040528093929190818152602001838360200280828437600081840152601f19601f8201169050808301925050505050505091929192905050506108fc565b005b610332610938565b6040518082815260200191505060405180910390f35b6103b46004803603606081101561035e57600080fd5b81019080803573ffffffffffffffffffffffffffffffffffffffff169060200190929190803573ffffffffffffffffffffffffffffffffffffffff1690602001909291908035906020019092919050505061093e565b604051808215151515815260200191505060405180910390f35b6103fa600480360360208110156103e457600080fd5b8101908080359060200190929190505050610a69565b005b610404611281565b604051808260ff1660ff16815260200191505060405180910390f35b6104626004803603602081101561043657600080fd5b81019080803573ffffffffffffffffffffffffffffffffffffffff169060200190929190505050611294565b6040518082815260200191505060405180910390f35b6104ba6004803603602081101561048e57600080fd5b81019080803573ffffffffffffffffffffffffffffffffffffffff1690602001909291905050506112ac565b6040518082815260200191505060405180910390f35b6104d86112c4565b6040518080602001828103825283818151815260200191508051906020019080838360005b838110156105185780820151818401526020810190506104fd565b50505050905090810190601f1680156105455780820380516001836020036101000a031916815260200191505b509250505060405180910390f35b61055b611362565b6040518082815260200191505060405180910390f35b6105bd6004803603604081101561058757600080fd5b81019080803573ffffffffffffffffffffffffffffffffffffffff16906020019092919080359060200190929190505050611368565b604051808215151515815260200191505060405180910390f35b610603600480360360208110156105ed57600080fd5b810190808035906020019092919050505061137f565b005b61060d611696565b6040518082815260200191505060405180910390f35b6106856004803603604081101561063957600080fd5b81019080803573ffffffffffffffffffffffffffffffffffffffff169060200190929190803573ffffffffffffffffffffffffffffffffffffffff16906020019092919050505061169c565b6040518082815260200191505060405180910390f35b6106e7600480360360408110156106b157600080fd5b81019080803573ffffffffffffffffffffffffffffffffffffffff169060200190929190803590602001909291905050506116c1565b005b610715600480360360208110156106ff57600080fd5b81019080803590602001909291905050506118ef565b60405180848152602001838152602001828152602001935050505060405180910390f35b60066020528060005260406000206000915054906101000a900473ffffffffffffffffffffffffffffffffffffffff1681565b60008054600181600116156101000203166002900480601f0160208091040260200160405190810160405280929190818152602001828054600181600116156101000203166002900480156108025780601f106107d757610100808354040283529160200191610802565b820191906000526020600020905b8154815290600101906020018083116107e557829003601f168201915b505050505081565b600081600560003373ffffffffffffffffffffffffffffffffffffffff1673ffffffffffffffffffffffffffffffffffffffff16815260200190815260200160002060008573ffffffffffffffffffffffffffffffffffffffff1673ffffffffffffffffffffffffffffffffffffffff168152602001908152602001600020819055508273ffffffffffffffffffffffffffffffffffffffff163373ffffffffffffffffffffffffffffffffffffffff167f8c5be1e5ebec7d5bd14f71427d1e84f3dd0314c0f7b2291e5b200ac8c7c3b925846040518082815260200191505060405180910390a36001905092915050565b60008090505b81518110156109345761092782828151811061091a57fe5b6020026020010151610a69565b8080600101915050610902565b5050565b60035481565b6000600560008573ffffffffffffffffffffffffffffffffffffffff1673ffffffffffffffffffffffffffffffffffffffff16815260200190815260200160002060003373ffffffffffffffffffffffffffffffffffffffff1673ffffffffffffffffffffffffffffffffffffffff168152602001908152602001600020548211156109c957600080fd5b81600560008673ffffffffffffffffffffffffffffffffffffffff1673ffffffffffffffffffffffffffffffffffffffff16815260200190815260200160002060003373ffffffffffffffffffffffffffffffffffffffff1673ffffffffffffffffffffffffffffffffffffffff16815260200190815260200160002060008282540392505081905550610a5e848484611919565b600190509392505050565b6000600860008381526020019081526020016000206000015442039050620fd200811015610d77573373ffffffffffffffffffffffffffffffffffffffff166006600084815260200190815260200160002060009054906101000a900473ffffffffffffffffffffffffffffffffffffffff1673ffffffffffffffffffffffffffffffffffffffff1614610b65576040517f08c379a000000000000000000000000000000000000000000000000000000000815260040180806020018281038252601e8152602001807f7468697320746f6b656e20646f6e742062656c6f6e677320746f20796f75000081525060200191505060405180910390fd5b6008600083815260200190815260200160002060010154600a600082825403925050819055506000660b342eb7c380008260086000868152602001908152602001600020600201546008600087815260200190815260200160002060010154020281610bcd57fe5b04905080600860008581526020019081526020016000206001015401600460003373ffffffffffffffffffffffffffffffffffffffff1673ffffffffffffffffffffffffffffffffffffffff1681526020019081526020016000206000828254019250508190555080600360008282540192505081905550600354620f42406064600a5460035403020281610c5e57fe5b04600b819055506006600084815260200190815260200160002060006101000a81549073ffffffffffffffffffffffffffffffffffffffff021916905560086000848152602001908152602001600020600080820160009055600182016000905560028201600090555050600760003373ffffffffffffffffffffffffffffffffffffffff1673ffffffffffffffffffffffffffffffffffffffff16815260200190815260200160002060008154809291906001900391905055503373ffffffffffffffffffffffffffffffffffffffff167f90890809c654f11d6e72a28fa60149770a0d11ec6c92319d6ceb2bb0a4ea1a1584600b54604051808381526020018281526020019250505060405180910390a25061127d565b620fd20081118015610d8b5750629e340081105b15611079573373ffffffffffffffffffffffffffffffffffffffff166006600084815260200190815260200160002060009054906101000a900473ffffffffffffffffffffffffffffffffffffffff1673ffffffffffffffffffffffffffffffffffffffff1614610e64576040517f08c379a000000000000000000000000000000000000000000000000000000000815260040180806020018281038252601e8152602001807f7468697320746f6b656e20646f6e742062656c6f6e677320746f20796f75000081525060200191505060405180910390fd5b6008600083815260200190815260200160002060010154600a600082825403925050819055506000660b342eb7c38000620fd20060086000868152602001908152602001600020600201546008600087815260200190815260200160002060010154020281610ecf57fe5b04905080600860008581526020019081526020016000206001015401600460003373ffffffffffffffffffffffffffffffffffffffff1673ffffffffffffffffffffffffffffffffffffffff1681526020019081526020016000206000828254019250508190555080600360008282540192505081905550600354620f42406064600a5460035403020281610f6057fe5b04600b819055506006600084815260200190815260200160002060006101000a81549073ffffffffffffffffffffffffffffffffffffffff021916905560086000848152602001908152602001600020600080820160009055600182016000905560028201600090555050600760003373ffffffffffffffffffffffffffffffffffffffff1673ffffffffffffffffffffffffffffffffffffffff16815260200190815260200160002060008154809291906001900391905055503373ffffffffffffffffffffffffffffffffffffffff167f90890809c654f11d6e72a28fa60149770a0d11ec6c92319d6ceb2bb0a4ea1a1584600b54604051808381526020018281526020019250505060405180910390a25061127c565b6008600083815260200190815260200160002060010154600a6000828254039250508190555060026008600084815260200190815260200160002060010154816110bf57fe5b04600460003373ffffffffffffffffffffffffffffffffffffffff1673ffffffffffffffffffffffffffffffffffffffff16815260200190815260200160002060008282540192505081905550600760006006600085815260200190815260200160002060009054906101000a900473ffffffffffffffffffffffffffffffffffffffff1673ffffffffffffffffffffffffffffffffffffffff1673ffffffffffffffffffffffffffffffffffffffff168152602001908152602001600020600081548092919060019003919050555060026008600084815260200190815260200160002060010154816111af57fe5b046003600082825403925050819055506006600083815260200190815260200160002060006101000a81549073ffffffffffffffffffffffffffffffffffffffff0219169055600860008381526020019081526020016000206000808201600090556001820160009055600282016000905550503373ffffffffffffffffffffffffffffffffffffffff167f90890809c654f11d6e72a28fa60149770a0d11ec6c92319d6ceb2bb0a4ea1a1583600b54604051808381526020018281526020019250505060405180910390a25b5b5050565b600260009054906101000a900460ff1681565b60076020528060005260406000206000915090505481565b60046020528060005260406000206000915090505481565b60018054600181600116156101000203166002900480601f01602080910402602001604051908101604052809291908181526020018280546001816001161561010002031660029004801561135a5780601f1061132f5761010080835404028352916020019161135a565b820191906000526020600020905b81548152906001019060200180831161133d57829003601f168201915b505050505081565b600a5481565b6000611375338484611919565b6001905092915050565b600460003373ffffffffffffffffffffffffffffffffffffffff1673ffffffffffffffffffffffffffffffffffffffff16815260200190815260200160002054811115611434576040517f08c379a000000000000000000000000000000000000000000000000000000000815260040180806020018281038252601c8152602001807f6e6f20656e6f7567682066756e647320696e2075722077616c6c65740000000081525060200191505060405180910390fd5b60008114156114ab576040517f08c379a00000000000000000000000000000000000000000000000000000000081526004018080602001828103825260188152602001807f776520646f6e74206163636570742030206465706f736974000000000000000081525060200191505060405180910390fd5b80600460003373ffffffffffffffffffffffffffffffffffffffff1673ffffffffffffffffffffffffffffffffffffffff168152602001908152602001600020600082825403925050819055508060086000600954815260200190815260200160002060010181905550600b546008600060095481526020019081526020016000206002018190555080600a60008282540192505081905550600354620f42406064600a546003540302028161155d57fe5b04600b819055503360066000600954815260200190815260200160002060006101000a81548173ffffffffffffffffffffffffffffffffffffffff021916908373ffffffffffffffffffffffffffffffffffffffff1602179055504260086000600954815260200190815260200160002060000181905550600960008154809291906001019190505550600760003373ffffffffffffffffffffffffffffffffffffffff1673ffffffffffffffffffffffffffffffffffffffff168152602001908152602001600020600081548092919060010191905055503373ffffffffffffffffffffffffffffffffffffffff167f90890809c654f11d6e72a28fa60149770a0d11ec6c92319d6ceb2bb0a4ea1a15600160095403600b54604051808381526020018281526020019250505060405180910390a250565b600b5481565b6005602052816000526040600020602052806000526040600020600091509150505481565b3373ffffffffffffffffffffffffffffffffffffffff166006600083815260200190815260200160002060009054906101000a900473ffffffffffffffffffffffffffffffffffffffff1673ffffffffffffffffffffffffffffffffffffffff1614611795576040517f08c379a000000000000000000000000000000000000000000000000000000000815260040180806020018281038252601d8152602001807f5468697320746f6b656e20646f6e742062656c6f6e6720746f20796f7500000081525060200191505060405180910390fd5b816006600083815260200190815260200160002060006101000a81548173ffffffffffffffffffffffffffffffffffffffff021916908373ffffffffffffffffffffffffffffffffffffffff160217905550600760003373ffffffffffffffffffffffffffffffffffffffff1673ffffffffffffffffffffffffffffffffffffffff1681526020019081526020016000206000815480929190600190039190505550600760008373ffffffffffffffffffffffffffffffffffffffff1673ffffffffffffffffffffffffffffffffffffffff168152602001908152602001600020600081548092919060010191905055508173ffffffffffffffffffffffffffffffffffffffff163373ffffffffffffffffffffffffffffffffffffffff167f087ed565c0e7c6e07d14bdc2fdbad244845465e9316b7aa8bf7ffffc3c5975bc836040518082815260200191505060405180910390a35050565b60086020528060005260406000206000915090508060000154908060010154908060020154905083565b600073ffffffffffffffffffffffffffffffffffffffff168273ffffffffffffffffffffffffffffffffffffffff16141561195357600080fd5b80600460008573ffffffffffffffffffffffffffffffffffffffff1673ffffffffffffffffffffffffffffffffffffffff16815260200190815260200160002054101561199f57600080fd5b600460008373ffffffffffffffffffffffffffffffffffffffff1673ffffffffffffffffffffffffffffffffffffffff1681526020019081526020016000205481600460008573ffffffffffffffffffffffffffffffffffffffff1673ffffffffffffffffffffffffffffffffffffffff16815260200190815260200160002054011015611a2c57600080fd5b6000600460008473ffffffffffffffffffffffffffffffffffffffff1673ffffffffffffffffffffffffffffffffffffffff16815260200190815260200160002054600460008673ffffffffffffffffffffffffffffffffffffffff1673ffffffffffffffffffffffffffffffffffffffff1681526020019081526020016000205401905081600460008673ffffffffffffffffffffffffffffffffffffffff1673ffffffffffffffffffffffffffffffffffffffff1681526020019081526020016000206000828254039250508190555081600460008573ffffffffffffffffffffffffffffffffffffffff1673ffffffffffffffffffffffffffffffffffffffff168152602001908152602001600020600082825401925050819055508273ffffffffffffffffffffffffffffffffffffffff168473ffffffffffffffffffffffffffffffffffffffff167fddf252ad1be2c89b69c2b068fc378daa952ba7f163c4a11628f55a4df523b3ef846040518082815260200191505060405180910390a380600460008573ffffffffffffffffffffffffffffffffffffffff1673ffffffffffffffffffffffffffffffffffffffff16815260200190815260200160002054600460008773ffffffffffffffffffffffffffffffffffffffff1673ffffffffffffffffffffffffffffffffffffffff168152602001908152602001600020540114611c3957fe5b5050505056fea265627a7a72315820afe012df47784fcf0fcf03649ab72b0a60b5d800e6bdfea8d9539747bad06f2164736f6c63430005100032",
  "source": "//SPDX-License-Identifier: MIT;\r\n\r\npragma solidity >=0.4.22 <0.8.4;\r\n\r\ncontract MAP {\r\n    //ERC20\r\n\r\n    // Public variables of the token\r\n    string public name;\r\n    string public symbol;\r\n    uint8 public decimals;\r\n    // 18 decimals is the strongly suggested default, avoid changing it\r\n    uint256 public totalSupply;\r\n\r\n    // This creates an array with all balances\r\n    mapping(address => uint256) public balanceOf;\r\n    mapping(address => mapping(address => uint256)) public allowance;\r\n    // This generates a public event on the blockchain that will notify clients\r\n    event Transfer(address indexed from, address indexed to, uint256 value);\r\n\r\n    // This generates a public event on the blockchain that will notify clients\r\n    event Approval(\r\n        address indexed _owner,\r\n        address indexed _spender,\r\n        uint256 _value\r\n    );\r\n\r\n    // this notifies clients about their tokenIds\r\n    event Deposit(address indexed _owner, uint _tokenId, uint _inflation);\r\n\r\n    // this notifies clients about the token they burned\r\n    event Withdraw(address indexed _owner, uint _tokenId, uint _inflation);\r\n\r\n    // transfer cmaps\r\n    event Tcmap(address indexed from, address indexed to, uint _tokenId);\r\n\r\n\r\n    /**\r\n     * Constructor function\r\n     *\r\n     * Initializes contract with initial supply tokens to the creator of the contract\r\n     */\r\n    constructor() public {\r\n        decimals = 9;\r\n        totalSupply = 1000000000 * 10**uint256(decimals); // Update total supply with the decimal amount\r\n        balanceOf[msg.sender] = totalSupply; // Give the creator all initial tokens\r\n        name = \"MAP\"; // Set the name for display purposes\r\n        symbol = \"MAP\";\r\n    }\r\n\r\n    /**\r\n     * Internal transfer, only can be called by this contract\r\n     */\r\n    function _transfer(\r\n        address _from,\r\n        address _to,\r\n        uint256 _value\r\n    ) internal {\r\n        // Prevent transfer to 0x0 address. Use burn() instead\r\n        require(_to != address(0x0));\r\n        // Check if the sender has enough\r\n        require(balanceOf[_from] >= _value);\r\n        // Check for overflows\r\n        require(balanceOf[_to] + _value >= balanceOf[_to]);\r\n        // Save this for an assertion in the future\r\n        uint256 previousBalances = balanceOf[_from] + balanceOf[_to];\r\n        // Subtract from the sender\r\n        balanceOf[_from] -= _value;\r\n        // Add the same to the recipient\r\n        balanceOf[_to] += _value;\r\n        emit Transfer(_from, _to, _value);\r\n        // Asserts are used to use static analysis to find bugs in your code. They should never fail\r\n        assert(balanceOf[_from] + balanceOf[_to] == previousBalances);\r\n    }\r\n\r\n    /**\r\n     * Transfer tokens\r\n     *\r\n     * Send '_value' tokens to '_to' from your account\r\n     *\r\n     * @param _to The address of the recipient\r\n     * @param _value the amount to send\r\n     */\r\n    function transfer(address _to, uint256 _value)\r\n        public\r\n        returns (bool success)\r\n    {\r\n        _transfer(msg.sender, _to, _value);\r\n        return true;\r\n    }\r\n\r\n    /**\r\n     * Transfer tokens from other address\r\n     *\r\n     * Send '_value' tokens to '_to' on behalf of '_from'\r\n     *\r\n     * @param _from The address of the sender\r\n     * @param _to The address of the recipient\r\n     * @param _value the amount to send\r\n     */\r\n    function transferFrom(\r\n        address _from,\r\n        address _to,\r\n        uint256 _value\r\n    ) public returns (bool success) {\r\n        require(_value <= allowance[_from][msg.sender]); // Check allowance\r\n        allowance[_from][msg.sender] -= _value;\r\n        _transfer(_from, _to, _value);\r\n        return true;\r\n    }\r\n\r\n    /**\r\n     * Set allowance for other address\r\n     *\r\n     * Allows '_spender' to spend no more than '_value' tokens on your behalf\r\n     *\r\n     * @param _spender The address authorized to spend\r\n     * @param _value the max amount they can spend\r\n     */\r\n    function approve(address _spender, uint256 _value)\r\n        public\r\n        returns (bool success)\r\n    {\r\n        allowance[msg.sender][_spender] = _value;\r\n        emit Approval(msg.sender, _spender, _value);\r\n        return true;\r\n    }\r\n\r\n    //BANK and ERC721\r\n\r\n    // mapping (address => uint256) public balanceBank;\r\n\r\n    //mapping for owner of token\r\n    mapping(uint256 => address) public token;\r\n\r\n    //number of token an address holds\r\n    mapping(address => uint256) public tokenNo;\r\n\r\n    //token data is is mapped with token id\r\n    mapping(uint256 => TokenData) public data;\r\n\r\n    //tokenIDs\r\n    uint256 private cmap;\r\n\r\n    //total tokens deposited into bank\r\n    uint256 public tokenInBank;\r\n\r\n    //inflation percentage\r\n    uint256 public inflation = 100000000;\r\n\r\n    //token data\r\n    struct TokenData {\r\n        uint256 time;\r\n        uint256 holdings;\r\n        uint256 interest;\r\n    }\r\n\r\n    function deposit(uint256 _value) public {\r\n        require(\r\n            _value <= balanceOf[msg.sender],\r\n            \"no enough funds in ur wallet\"\r\n        );\r\n\r\n        require(_value != 0, \"we dont accept 0 deposit\");\r\n\r\n        //subs tokens from user wallet\r\n        balanceOf[msg.sender] -= _value;\r\n\r\n        //adds tokens to cmap holdings\r\n        data[cmap].holdings = _value;\r\n\r\n        //storing interest rate at that moment\r\n        data[cmap].interest = inflation;\r\n\r\n        //adds tokens to total bank holdings\r\n        tokenInBank += _value;\r\n\r\n        //finds interest %\r\n        inflation =\r\n            ((totalSupply - tokenInBank) * 100 * 1000000) /\r\n            (totalSupply);\r\n\r\n        //maps cmap token to the user who deposited tokens\r\n        token[cmap] = msg.sender;\r\n\r\n        //storing time of the deposit\r\n        data[cmap].time = block.timestamp;\r\n\r\n        //incrementing tokenid\r\n        cmap++;\r\n\r\n        //incrementing number of tokens held by the depositor\r\n        tokenNo[msg.sender]++;\r\n\r\n        //emit deposit event\r\n        emit Deposit(msg.sender,cmap-1,inflation);\r\n    }\r\n\r\n    function withdraw(uint256 _tokenId) public {\r\n        uint256 diff = block.timestamp - data[_tokenId].time;\r\n\r\n        if (diff < 1036800) {\r\n            require(\r\n                token[_tokenId] == msg.sender,\r\n                \"this token dont belongs to you\"\r\n            );\r\n\r\n            //updating total tokens in bank\r\n            tokenInBank -= data[_tokenId].holdings;\r\n\r\n            //calculating interest amount;\r\n            uint256 interestAmount =\r\n                ((data[_tokenId].holdings * data[_tokenId].interest) * (diff)) /\r\n                    (100 * 31536000 * 1000000);\r\n\r\n            //transfering tokens to users wallet\r\n            balanceOf[msg.sender] += (data[_tokenId].holdings + interestAmount);\r\n\r\n            //totalSupply Update\r\n            totalSupply += interestAmount;\r\n\r\n            //finds interest %\r\n            inflation =\r\n                ((totalSupply - tokenInBank) * 100 * 1000000) /\r\n                (totalSupply);\r\n\r\n            //buring cmap token\r\n            delete token[_tokenId];\r\n\r\n            //burning token data\r\n            delete data[_tokenId];\r\n\r\n            //updating number of cmap tokens held by the user\r\n            tokenNo[msg.sender]--;\r\n\r\n            //emit withdraw event\r\n            emit Deposit(msg.sender,_tokenId,inflation);\r\n        } else if (diff > 1036800 && diff < 10368000) {\r\n            require(\r\n                token[_tokenId] == msg.sender,\r\n                \"this token dont belongs to you\"\r\n            );\r\n\r\n            //updating total tokens in bank\r\n            tokenInBank -= data[_tokenId].holdings;\r\n\r\n            //calculating interest amount;\r\n            uint256 interestAmount =\r\n                ((data[_tokenId].holdings * data[_tokenId].interest) *\r\n                    (1036800)) / (100 * 31536000 * 1000000);\r\n\r\n            //transfering tokens to users wallet\r\n            balanceOf[msg.sender] += (data[_tokenId].holdings + interestAmount);\r\n\r\n            //totalSupply Update\r\n            totalSupply += interestAmount;\r\n\r\n            //finds interest %\r\n            inflation =\r\n                ((totalSupply - tokenInBank) * 100 * 1000000) /\r\n                (totalSupply);\r\n\r\n            //buring cmap token\r\n            delete token[_tokenId];\r\n\r\n            //burning token data\r\n            delete data[_tokenId];\r\n\r\n            //updating number of cmap tokens held by the user\r\n            tokenNo[msg.sender]--;\r\n\r\n            //emit withdraw event\r\n            emit Deposit(msg.sender,_tokenId,inflation);\r\n        } else {\r\n            //updating total tokens in bank\r\n            tokenInBank -= data[_tokenId].holdings;\r\n\r\n            //transfering tokens to users wallet\r\n            balanceOf[msg.sender] += data[_tokenId].holdings / 2;\r\n\r\n            //updating tokens held by user\r\n            tokenNo[token[_tokenId]]--;\r\n\r\n            totalSupply -= data[_tokenId].holdings / 2;\r\n\r\n            //buring cmap token\r\n            delete token[_tokenId];\r\n\r\n            //burning token data\r\n            delete data[_tokenId];\r\n\r\n            //emit withdraw event\r\n            emit Deposit(msg.sender,_tokenId,inflation);\r\n        }\r\n    }\r\n\r\n    function transferCmap(address _id, uint256 _tokenId) public {\r\n        require(token[_tokenId] == msg.sender, \"This token dont belong to you\");\r\n\r\n        //token tranfered to said address\r\n        token[_tokenId] = _id;\r\n\r\n        //updating token number for both addresses\r\n        tokenNo[msg.sender]--;\r\n        tokenNo[_id]++;\r\n\r\n        //transfer cmap event\r\n        emit Tcmap(msg.sender,_id,_tokenId);\r\n    }\r\n\r\n    function withdrawAll(uint[] memory _tokens) public{\r\n        for(uint i=0; i<_tokens.length; i++)\r\n        {\r\n            withdraw(_tokens[i]);\r\n        }\r\n    }\r\n}\r\n",
  "sourcePath": "D:/projects/map/contracts/map.sol",
  "compiler": {
    "name": "solc",
    "version": "0.5.16+commit.9c3226ce.Emscripten.clang"
  },
  "schemaVersion": "3.4.1",
  "updatedAt": "2021-06-09T09:34:36.106Z",
  "networkType": "ethereum",
  "devdoc": {
    "methods": {
      "approve(address,uint256)": {
        "params": {
          "_spender": "The address authorized to spend",
          "_value": "the max amount they can spend"
        }
      },
      "transfer(address,uint256)": {
        "params": {
          "_to": "The address of the recipient",
          "_value": "the amount to send"
        }
      },
      "transferFrom(address,address,uint256)": {
        "params": {
          "_from": "The address of the sender",
          "_to": "The address of the recipient",
          "_value": "the amount to send"
        }
      }
    }
  },
  "userdoc": {
    "methods": {
      "approve(address,uint256)": {
        "notice": "Set allowance for other address      * Allows '_spender' to spend no more than '_value' tokens on your behalf "
      },
      "constructor": "Constructor function      * Initializes contract with initial supply tokens to the creator of the contract",
      "transfer(address,uint256)": {
        "notice": "Transfer tokens      * Send '_value' tokens to '_to' from your account "
      },
      "transferFrom(address,address,uint256)": {
        "notice": "Transfer tokens from other address      * Send '_value' tokens to '_to' on behalf of '_from' "
      }
    }
  }
}